{
  "contractName": "wineSecure",
  "abi": [
    {
      "constant": true,
      "inputs": [],
      "name": "wineCharacteristics",
      "outputs": [
        {
          "name": "grapeVariety",
          "type": "string"
        },
        {
          "name": "colour",
          "type": "string"
        },
        {
          "name": "alcoholLevel",
          "type": "uint256"
        },
        {
          "name": "acidLevel",
          "type": "string"
        },
        {
          "name": "phenolicContent",
          "type": "string"
        },
        {
          "name": "sugarLevel",
          "type": "uint256"
        },
        {
          "name": "minerals",
          "type": "string"
        },
        {
          "name": "co2",
          "type": "uint256"
        }
      ],
      "payable": false,
      "stateMutability": "view",
      "type": "function"
    },
    {
      "constant": true,
      "inputs": [],
      "name": "owner",
      "outputs": [
        {
          "name": "",
          "type": "address"
        }
      ],
      "payable": false,
      "stateMutability": "view",
      "type": "function"
    },
    {
      "constant": true,
      "inputs": [
        {
          "name": "",
          "type": "uint256"
        }
      ],
      "name": "supplyChain",
      "outputs": [
        {
          "name": "source",
          "type": "address"
        }
      ],
      "payable": false,
      "stateMutability": "view",
      "type": "function"
    },
    {
      "inputs": [],
      "payable": false,
      "stateMutability": "nonpayable",
      "type": "constructor"
    },
    {
      "payable": true,
      "stateMutability": "payable",
      "type": "fallback"
    },
    {
      "anonymous": false,
      "inputs": [
        {
          "indexed": false,
          "name": "owner",
          "type": "address"
        },
        {
          "indexed": false,
          "name": "message",
          "type": "string"
        }
      ],
      "name": "TransferOwnership",
      "type": "event"
    },
    {
      "anonymous": false,
      "inputs": [
        {
          "indexed": false,
          "name": "message",
          "type": "string"
        },
        {
          "indexed": false,
          "name": "setting",
          "type": "string"
        }
      ],
      "name": "CharacteristicsSet",
      "type": "event"
    },
    {
      "constant": false,
      "inputs": [],
      "name": "kill",
      "outputs": [],
      "payable": false,
      "stateMutability": "nonpayable",
      "type": "function"
    },
    {
      "constant": false,
      "inputs": [
        {
          "name": "variety",
          "type": "string"
        }
      ],
      "name": "grapeVariety",
      "outputs": [],
      "payable": false,
      "stateMutability": "nonpayable",
      "type": "function"
    },
    {
      "constant": false,
      "inputs": [
        {
          "name": "newOwner",
          "type": "address"
        }
      ],
      "name": "transferOwnership",
      "outputs": [],
      "payable": false,
      "stateMutability": "nonpayable",
      "type": "function"
    }
  ],
  "bytecode": "0x6060604052341561000f57600080fd5b336000806101000a81548173ffffffffffffffffffffffffffffffffffffffff021916908373ffffffffffffffffffffffffffffffffffffffff16021790555060098054806001018281610063919061010b565b916000526020600020900160006020604051908101604052806000809054906101000a900473ffffffffffffffffffffffffffffffffffffffff1673ffffffffffffffffffffffffffffffffffffffff16815250909190915060008201518160000160006101000a81548173ffffffffffffffffffffffffffffffffffffffff021916908373ffffffffffffffffffffffffffffffffffffffff16021790555050505061017d565b815481835581811511610132578183600052602060002091820191016101319190610137565b5b505050565b61017a91905b8082111561017657600080820160006101000a81549073ffffffffffffffffffffffffffffffffffffffff02191690555060010161013d565b5090565b90565b610ce68061018c6000396000f300606060405260043610610078576000357c0100000000000000000000000000000000000000000000000000000000900463ffffffff168063155f303d1461007a57806341c0e1b5146102cd5780638da5cb5b146102e2578063f2fde38b14610337578063f4e153f414610370578063faf0ab63146103d3575b005b341561008557600080fd5b61008d610430565b60405180806020018060200189815260200180602001806020018881526020018060200187815260200186810386528e818151815260200191508051906020019080838360005b838110156100ef5780820151818401526020810190506100d4565b50505050905090810190601f16801561011c5780820380516001836020036101000a031916815260200191505b5086810385528d818151815260200191508051906020019080838360005b8381101561015557808201518184015260208101905061013a565b50505050905090810190601f1680156101825780820380516001836020036101000a031916815260200191505b5086810384528b818151815260200191508051906020019080838360005b838110156101bb5780820151818401526020810190506101a0565b50505050905090810190601f1680156101e85780820380516001836020036101000a031916815260200191505b5086810383528a818151815260200191508051906020019080838360005b83811015610221578082015181840152602081019050610206565b50505050905090810190601f16801561024e5780820380516001836020036101000a031916815260200191505b50868103825288818151815260200191508051906020019080838360005b8381101561028757808201518184015260208101905061026c565b50505050905090810190601f1680156102b45780820380516001836020036101000a031916815260200191505b509d505050505050505050505050505060405180910390f35b34156102d857600080fd5b6102e061075e565b005b34156102ed57600080fd5b6102f56107ef565b604051808273ffffffffffffffffffffffffffffffffffffffff1673ffffffffffffffffffffffffffffffffffffffff16815260200191505060405180910390f35b341561034257600080fd5b61036e600480803573ffffffffffffffffffffffffffffffffffffffff16906020019091905050610814565b005b341561037b57600080fd5b6103916004808035906020019091905050610a0b565b604051808273ffffffffffffffffffffffffffffffffffffffff1673ffffffffffffffffffffffffffffffffffffffff16815260200191505060405180910390f35b34156103de57600080fd5b61042e600480803590602001908201803590602001908080601f01602080910402602001604051908101604052809392919081815260200183838082843782019150505050505091905050610a55565b005b6001806000018054600181600116156101000203166002900480601f0160208091040260200160405190810160405280929190818152602001828054600181600116156101000203166002900480156104ca5780601f1061049f576101008083540402835291602001916104ca565b820191906000526020600020905b8154815290600101906020018083116104ad57829003601f168201915b505050505090806001018054600181600116156101000203166002900480601f0160208091040260200160405190810160405280929190818152602001828054600181600116156101000203166002900480156105685780601f1061053d57610100808354040283529160200191610568565b820191906000526020600020905b81548152906001019060200180831161054b57829003601f168201915b505050505090806002015490806003018054600181600116156101000203166002900480601f01602080910402602001604051908101604052809291908181526020018280546001816001161561010002031660029004801561060c5780601f106105e15761010080835404028352916020019161060c565b820191906000526020600020905b8154815290600101906020018083116105ef57829003601f168201915b505050505090806004018054600181600116156101000203166002900480601f0160208091040260200160405190810160405280929190818152602001828054600181600116156101000203166002900480156106aa5780601f1061067f576101008083540402835291602001916106aa565b820191906000526020600020905b81548152906001019060200180831161068d57829003601f168201915b505050505090806005015490806006018054600181600116156101000203166002900480601f01602080910402602001604051908101604052809291908181526020018280546001816001161561010002031660029004801561074e5780601f106107235761010080835404028352916020019161074e565b820191906000526020600020905b81548152906001019060200180831161073157829003601f168201915b5050505050908060070154905088565b6000809054906101000a900473ffffffffffffffffffffffffffffffffffffffff1673ffffffffffffffffffffffffffffffffffffffff163373ffffffffffffffffffffffffffffffffffffffff1614156107ed576000809054906101000a900473ffffffffffffffffffffffffffffffffffffffff1673ffffffffffffffffffffffffffffffffffffffff16ff5b565b6000809054906101000a900473ffffffffffffffffffffffffffffffffffffffff1681565b6000809054906101000a900473ffffffffffffffffffffffffffffffffffffffff1673ffffffffffffffffffffffffffffffffffffffff163373ffffffffffffffffffffffffffffffffffffffff1614151561086f57610a08565b600980548060010182816108839190610ba3565b916000526020600020900160006020604051908101604052808573ffffffffffffffffffffffffffffffffffffffff16815250909190915060008201518160000160006101000a81548173ffffffffffffffffffffffffffffffffffffffff021916908373ffffffffffffffffffffffffffffffffffffffff160217905550505050806000806101000a81548173ffffffffffffffffffffffffffffffffffffffff021916908373ffffffffffffffffffffffffffffffffffffffff1602179055507f4324b40843ec5f927b09dab0704617a403a6ab1d3c8243e929592b6f165bf44e33604051808273ffffffffffffffffffffffffffffffffffffffff1673ffffffffffffffffffffffffffffffffffffffff16815260200180602001828103825260228152602001807f57696e65206f776e65727368697020686173206265656e207472616e7366657281526020017f65640000000000000000000000000000000000000000000000000000000000008152506040019250505060405180910390a15b50565b600981815481101515610a1a57fe5b90600052602060002090016000915090508060000160009054906101000a900473ffffffffffffffffffffffffffffffffffffffff16905081565b6000809054906101000a900473ffffffffffffffffffffffffffffffffffffffff1673ffffffffffffffffffffffffffffffffffffffff163373ffffffffffffffffffffffffffffffffffffffff16141515610ab057610ba0565b8060016000019080519060200190610ac9929190610bcf565b507f14268dd9cc0a7c800c98261dacaed728b242566a0cb64a473cd5883f9e13ad9f81604051808060200180602001838103835260138152602001807f56617269657479206368616e67656420746f3a00000000000000000000000000815250602001838103825284818151815260200191508051906020019080838360005b83811015610b64578082015181840152602081019050610b49565b50505050905090810190601f168015610b915780820380516001836020036101000a031916815260200191505b50935050505060405180910390a15b50565b815481835581811511610bca57818360005260206000209182019101610bc99190610c4f565b5b505050565b828054600181600116156101000203166002900490600052602060002090601f016020900481019282601f10610c1057805160ff1916838001178555610c3e565b82800160010185558215610c3e579182015b82811115610c3d578251825591602001919060010190610c22565b5b509050610c4b9190610c95565b5090565b610c9291905b80821115610c8e57600080820160006101000a81549073ffffffffffffffffffffffffffffffffffffffff021916905550600101610c55565b5090565b90565b610cb791905b80821115610cb3576000816000905550600101610c9b565b5090565b905600a165627a7a723058208ed19925df74d32924733015086029c803372a54714248d1c492b78700c7a1e70029",
  "source": "pragma solidity ^0.4.21;\n\ncontract wineSecure {\n    /* Define variable owner of the type address*/\n    address public owner;\n\n    /* Define variables that store Wine details */\n    WineCharacteristics public wineCharacteristics;\n\n    /* Define a public event */\n    event TransferOwnership(address owner, string message);\n    event CharacteristicsSet(string message, string setting);\n\n    /* Collection of shareHolders */\n    SupplyChain[] public supplyChain;\n\n    /* data structure to hold information on supply chain */\n    struct SupplyChain {\n        address source;\n    }\n\n    /* data structure to hold information on wine */\n    struct WineCharacteristics {\n        string grapeVariety;\n        string colour;\n        uint alcoholLevel;\n//        string pressing;\n//        string Fermentation;\n//        string additives;\n        string acidLevel;\n        string phenolicContent;\n        uint sugarLevel;\n        string minerals;\n        uint co2;\n    }\n\n    /* Function to delete all information on the contract */\n    function kill() public { \n        if (msg.sender == owner) \n            selfdestruct(owner); \n    }\n\n    /* this runs when the contract is created  */\n    function wineSecure() public {\n        // set the owner to be the creator of the contract\n        owner = msg.sender;\n        // init the supply chain and add this owner\n        supplyChain.push(SupplyChain({source : owner}));\n    }\n\n    function grapeVariety(string variety) public  {\n        // only the current owner can set the values\n        if (msg.sender != owner) return; \n        // send an event \n        wineCharacteristics.grapeVariety = variety;\n        emit CharacteristicsSet(\"Variety changed to:\", variety);\n    }\n\n    function transferOwnership(address newOwner) public {\n        // only the current owner can set the values\n        if (msg.sender != owner) return; \n        supplyChain.push(SupplyChain({source : newOwner}));\n        owner = newOwner;\n        // send an event \n        emit TransferOwnership(msg.sender, \"Wine ownership has been transfered\");\n    }\n\n    // *******************************\n    // The function to loop over all \n    // funders to find the highest\n    // *******************************\n    /*\n    function getTopFunder() {\n        uint amount=0;\n        for(uint i=0;i<funders.length;i++)\n            if(amount < funders[i].amount)\n                _topFunder = funders[i].addr;\n    }\n    */\n\n    // *******************************\n    // The function without name will prevent any\n    // Eth being stored against the contract\n    // *******************************\n    function () public payable {\n    }\n}",
  "sourcePath": "/Users/richardagreene/Documents/Development/CSG6224/web-app/contracts/wineSecure.sol",
  "compiler": {
    "name": "solc",
    "version": "0.4.21+commit.dfe3193c.Emscripten.clang"
  },
  "schemaVersion": "2.0.0",
  "updatedAt": "2018-04-01T10:25:22.020Z"
}