{
  "contractName": "wineSecure",
  "abi": [
    {
      "constant": true,
      "inputs": [],
      "name": "owner",
      "outputs": [
        {
          "name": "",
          "type": "address"
        }
      ],
      "payable": false,
      "stateMutability": "view",
      "type": "function"
    },
    {
      "constant": true,
      "inputs": [],
      "name": "wineDetail",
      "outputs": [
        {
          "name": "name",
          "type": "string"
        },
        {
          "name": "vineyard",
          "type": "string"
        },
        {
          "name": "grapeVariety",
          "type": "string"
        },
        {
          "name": "colour",
          "type": "string"
        },
        {
          "name": "alcoholLevel",
          "type": "uint256"
        },
        {
          "name": "status",
          "type": "string"
        }
      ],
      "payable": false,
      "stateMutability": "view",
      "type": "function"
    },
    {
      "constant": true,
      "inputs": [
        {
          "name": "",
          "type": "uint256"
        }
      ],
      "name": "supplyChain",
      "outputs": [
        {
          "name": "source",
          "type": "address"
        }
      ],
      "payable": false,
      "stateMutability": "view",
      "type": "function"
    },
    {
      "inputs": [
        {
          "name": "name",
          "type": "string"
        },
        {
          "name": "vineyard",
          "type": "string"
        },
        {
          "name": "grapeVariety",
          "type": "string"
        },
        {
          "name": "colour",
          "type": "string"
        },
        {
          "name": "alcoholLevel",
          "type": "uint256"
        }
      ],
      "payable": false,
      "stateMutability": "nonpayable",
      "type": "constructor"
    },
    {
      "payable": true,
      "stateMutability": "payable",
      "type": "fallback"
    },
    {
      "anonymous": false,
      "inputs": [
        {
          "indexed": false,
          "name": "owner",
          "type": "address"
        },
        {
          "indexed": false,
          "name": "message",
          "type": "string"
        }
      ],
      "name": "TransferOwnership",
      "type": "event"
    },
    {
      "anonymous": false,
      "inputs": [
        {
          "indexed": false,
          "name": "message",
          "type": "string"
        }
      ],
      "name": "DetailsSet",
      "type": "event"
    },
    {
      "constant": false,
      "inputs": [],
      "name": "kill",
      "outputs": [],
      "payable": false,
      "stateMutability": "nonpayable",
      "type": "function"
    },
    {
      "constant": false,
      "inputs": [
        {
          "name": "name",
          "type": "string"
        },
        {
          "name": "vineyard",
          "type": "string"
        },
        {
          "name": "grapeVariety",
          "type": "string"
        },
        {
          "name": "colour",
          "type": "string"
        },
        {
          "name": "alcoholLevel",
          "type": "uint256"
        }
      ],
      "name": "setDetails",
      "outputs": [],
      "payable": false,
      "stateMutability": "nonpayable",
      "type": "function"
    },
    {
      "constant": false,
      "inputs": [
        {
          "name": "newOwner",
          "type": "address"
        }
      ],
      "name": "transferOwnership",
      "outputs": [],
      "payable": false,
      "stateMutability": "nonpayable",
      "type": "function"
    }
  ],
  "bytecode": "0x606060405234156200001057600080fd5b604051620010e6380380620010e683398101604052808051820191906020018051820191906020018051820191906020018051820191906020018051906020019091905050336000806101000a81548173ffffffffffffffffffffffffffffffffffffffff021916908373ffffffffffffffffffffffffffffffffffffffff1602179055508460016000019080519060200190620000b092919062000223565b5083600180019080519060200190620000cb92919062000223565b508260016002019080519060200190620000e792919062000223565b5081600160030190805190602001906200010392919062000223565b50806001600401819055506040805190810160405280600a81526020017f7265676973746572656400000000000000000000000000000000000000000000815250600160050190805190602001906200015e92919062000223565b5060108054806001018281620001759190620002aa565b916000526020600020900160006020604051908101604052806000809054906101000a900473ffffffffffffffffffffffffffffffffffffffff1673ffffffffffffffffffffffffffffffffffffffff16815250909190915060008201518160000160006101000a81548173ffffffffffffffffffffffffffffffffffffffff021916908373ffffffffffffffffffffffffffffffffffffffff16021790555050505050505050506200034a565b828054600181600116156101000203166002900490600052602060002090601f016020900481019282601f106200026657805160ff191683800117855562000297565b8280016001018555821562000297579182015b828111156200029657825182559160200191906001019062000279565b5b509050620002a69190620002d9565b5090565b815481835581811511620002d457818360005260206000209182019101620002d3919062000301565b5b505050565b620002fe91905b80821115620002fa576000816000905550600101620002e0565b5090565b90565b6200034791905b808211156200034357600080820160006101000a81549073ffffffffffffffffffffffffffffffffffffffff02191690555060010162000308565b5090565b90565b610d8c806200035a6000396000f300606060405260043610610078576000357c0100000000000000000000000000000000000000000000000000000000900463ffffffff16806341c0e1b51461007a5780638da5cb5b1461008f578063a8e7416f146100e4578063e7c9e6af14610213578063f2fde38b14610458578063f4e153f414610491575b005b341561008557600080fd5b61008d6104f4565b005b341561009a57600080fd5b6100a2610585565b604051808273ffffffffffffffffffffffffffffffffffffffff1673ffffffffffffffffffffffffffffffffffffffff16815260200191505060405180910390f35b34156100ef57600080fd5b610211600480803590602001908201803590602001908080601f0160208091040260200160405190810160405280939291908181526020018383808284378201915050505050509190803590602001908201803590602001908080601f0160208091040260200160405190810160405280939291908181526020018383808284378201915050505050509190803590602001908201803590602001908080601f0160208091040260200160405190810160405280939291908181526020018383808284378201915050505050509190803590602001908201803590602001908080601f016020809104026020016040519081016040528093929190818152602001838380828437820191505050505050919080359060200190919050506105aa565b005b341561021e57600080fd5b6102266106e6565b60405180806020018060200180602001806020018781526020018060200186810386528c818151815260200191508051906020019080838360005b8381101561027c578082015181840152602081019050610261565b50505050905090810190601f1680156102a95780820380516001836020036101000a031916815260200191505b5086810385528b818151815260200191508051906020019080838360005b838110156102e25780820151818401526020810190506102c7565b50505050905090810190601f16801561030f5780820380516001836020036101000a031916815260200191505b5086810384528a818151815260200191508051906020019080838360005b8381101561034857808201518184015260208101905061032d565b50505050905090810190601f1680156103755780820380516001836020036101000a031916815260200191505b50868103835289818151815260200191508051906020019080838360005b838110156103ae578082015181840152602081019050610393565b50505050905090810190601f1680156103db5780820380516001836020036101000a031916815260200191505b50868103825287818151815260200191508051906020019080838360005b838110156104145780820151818401526020810190506103f9565b50505050905090810190601f1680156104415780820380516001836020036101000a031916815260200191505b509b50505050505050505050505060405180910390f35b341561046357600080fd5b61048f600480803573ffffffffffffffffffffffffffffffffffffffff16906020019091905050610a08565b005b341561049c57600080fd5b6104b26004808035906020019091905050610bff565b604051808273ffffffffffffffffffffffffffffffffffffffff1673ffffffffffffffffffffffffffffffffffffffff16815260200191505060405180910390f35b6000809054906101000a900473ffffffffffffffffffffffffffffffffffffffff1673ffffffffffffffffffffffffffffffffffffffff163373ffffffffffffffffffffffffffffffffffffffff161415610583576000809054906101000a900473ffffffffffffffffffffffffffffffffffffffff1673ffffffffffffffffffffffffffffffffffffffff16ff5b565b6000809054906101000a900473ffffffffffffffffffffffffffffffffffffffff1681565b6000809054906101000a900473ffffffffffffffffffffffffffffffffffffffff1673ffffffffffffffffffffffffffffffffffffffff163373ffffffffffffffffffffffffffffffffffffffff16141515610605576106df565b846001600001908051906020019061061e929190610c49565b5083600180019080519060200190610637929190610c49565b508260016002019080519060200190610651929190610c49565b50816001600301908051906020019061066b929190610c49565b50806001600401819055507ff4d6214bd5726f13c843765f69aa53e44785109d05b78da5c5ac698f03d7810160405180806020018281038252600b8152602001807f44657461696c732073657400000000000000000000000000000000000000000081525060200191505060405180910390a15b5050505050565b6001806000018054600181600116156101000203166002900480601f0160208091040260200160405190810160405280929190818152602001828054600181600116156101000203166002900480156107805780601f1061075557610100808354040283529160200191610780565b820191906000526020600020905b81548152906001019060200180831161076357829003601f168201915b505050505090806001018054600181600116156101000203166002900480601f01602080910402602001604051908101604052809291908181526020018280546001816001161561010002031660029004801561081e5780601f106107f35761010080835404028352916020019161081e565b820191906000526020600020905b81548152906001019060200180831161080157829003601f168201915b505050505090806002018054600181600116156101000203166002900480601f0160208091040260200160405190810160405280929190818152602001828054600181600116156101000203166002900480156108bc5780601f10610891576101008083540402835291602001916108bc565b820191906000526020600020905b81548152906001019060200180831161089f57829003601f168201915b505050505090806003018054600181600116156101000203166002900480601f01602080910402602001604051908101604052809291908181526020018280546001816001161561010002031660029004801561095a5780601f1061092f5761010080835404028352916020019161095a565b820191906000526020600020905b81548152906001019060200180831161093d57829003601f168201915b505050505090806004015490806005018054600181600116156101000203166002900480601f0160208091040260200160405190810160405280929190818152602001828054600181600116156101000203166002900480156109fe5780601f106109d3576101008083540402835291602001916109fe565b820191906000526020600020905b8154815290600101906020018083116109e157829003601f168201915b5050505050905086565b6000809054906101000a900473ffffffffffffffffffffffffffffffffffffffff1673ffffffffffffffffffffffffffffffffffffffff163373ffffffffffffffffffffffffffffffffffffffff16141515610a6357610bfc565b60108054806001018281610a779190610cc9565b916000526020600020900160006020604051908101604052808573ffffffffffffffffffffffffffffffffffffffff16815250909190915060008201518160000160006101000a81548173ffffffffffffffffffffffffffffffffffffffff021916908373ffffffffffffffffffffffffffffffffffffffff160217905550505050806000806101000a81548173ffffffffffffffffffffffffffffffffffffffff021916908373ffffffffffffffffffffffffffffffffffffffff1602179055507f4324b40843ec5f927b09dab0704617a403a6ab1d3c8243e929592b6f165bf44e33604051808273ffffffffffffffffffffffffffffffffffffffff1673ffffffffffffffffffffffffffffffffffffffff16815260200180602001828103825260228152602001807f57696e65206f776e65727368697020686173206265656e207472616e7366657281526020017f65640000000000000000000000000000000000000000000000000000000000008152506040019250505060405180910390a15b50565b601081815481101515610c0e57fe5b90600052602060002090016000915090508060000160009054906101000a900473ffffffffffffffffffffffffffffffffffffffff16905081565b828054600181600116156101000203166002900490600052602060002090601f016020900481019282601f10610c8a57805160ff1916838001178555610cb8565b82800160010185558215610cb8579182015b82811115610cb7578251825591602001919060010190610c9c565b5b509050610cc59190610cf5565b5090565b815481835581811511610cf057818360005260206000209182019101610cef9190610d1a565b5b505050565b610d1791905b80821115610d13576000816000905550600101610cfb565b5090565b90565b610d5d91905b80821115610d5957600080820160006101000a81549073ffffffffffffffffffffffffffffffffffffffff021916905550600101610d20565b5090565b905600a165627a7a72305820c2ecef2bb119a787de68be5b99f2dd1ec6221d858b548e7aac3b2ccfc448d9160029",
  "source": "pragma solidity ^0.4.21;\n\ncontract wineSecure {\n    /* Define variable owner of the type address*/\n    address public owner;\n\n    /* Define variables that store Wine details */\n    WineDetails public wineDetail;\n    ChemicalAnalysis chemicalAnalysis;\n    GeographicalIndication geographicalIndication;\n    QualityTerm qualityTerm;   //fortified/specialised wine only\n\n    /* Define a public event */\n    event TransferOwnership(address owner, string message);\n    event DetailsSet(string message);\n\n    /* Collection of shareHolders */\n    SupplyChain[] public supplyChain;\n\n    /* data structure to hold information on supply chain */\n    struct SupplyChain {\n        address source;\n    }\n\n    /* data structure to hold information on wine */\n    struct WineDetails {\n        string name;\n        string vineyard;\n        string grapeVariety;\n        string colour;\n        uint alcoholLevel;\n        string status;\n    }\n\n    struct ChemicalAnalysis {\n        string acidLevel;\n        string phenolicContent;\n        uint sugarLevel;\n        string minerals;\n        uint co2;\n    }\n\n    struct GeographicalIndication {\n        string state;\n        string region;\n        string subregion;\n    } \n    // ref https://www.wineaustralia.com/labelling/register-of-protected-gis-and-other-terms\n    enum QualityTerm { Cream, Crusted, Ruby, Solera, Tawny, Vintage, Icewine, MethodeChampenoise, Moscato }\n\n    /* Function to delete all information on the contract */\n    function kill() public { \n        if (msg.sender == owner) \n            selfdestruct(owner); \n    }\n\n    /* this runs when the contract is created  */\n    function wineSecure(\n        string name,\n        string vineyard,\n        string grapeVariety,\n        string colour,\n        uint alcoholLevel\n    ) public {\n        // set the owner to be the creator of the contract\n        owner = msg.sender;\n        wineDetail.name = name;\n        wineDetail.vineyard = vineyard;\n        wineDetail.grapeVariety = grapeVariety;\n        wineDetail.colour = colour;\n        wineDetail.alcoholLevel = alcoholLevel;\n        wineDetail.status = \"registered\";\n        // init the record and supply chain records \n        supplyChain.push(SupplyChain({source : owner}));\n    }\n\n    function setDetails( \n        string name,\n        string vineyard,\n        string grapeVariety,\n        string colour,\n        uint alcoholLevel) public  {\n        // only the current owner can set the values\n        if (msg.sender != owner) return; \n        // send an event \n        wineDetail.name = name;\n        wineDetail.vineyard = vineyard;\n        wineDetail.grapeVariety = grapeVariety;\n        wineDetail.colour = colour;\n        wineDetail.alcoholLevel = alcoholLevel;\n        emit DetailsSet(\"Details set\");\n    }\n\n    function transferOwnership(address newOwner) public {\n        // only the current owner can set the values\n        if (msg.sender != owner) return; \n        supplyChain.push(SupplyChain({source : newOwner}));\n        owner = newOwner;\n        // send an event \n        emit TransferOwnership(msg.sender, \"Wine ownership has been transfered\");\n    }\n\n    // *******************************\n    // The function to loop over all \n    // funders to find the highest\n    // *******************************\n    /*\n    function getTopFunder() {\n        uint amount=0;\n        for(uint i=0;i<funders.length;i++)\n            if(amount < funders[i].amount)\n                _topFunder = funders[i].addr;\n    }\n    */\n\n    // *******************************\n    // The function without name will prevent any\n    // Eth being stored against the contract\n    // *******************************\n    function () public payable {\n    }\n}",
  "sourcePath": "/Users/richardagreene/Documents/Development/CSG6224/web-app/contracts/wineSecure.sol",
  "compiler": {
    "name": "solc",
    "version": "0.4.21+commit.dfe3193c.Emscripten.clang"
  },
  "schemaVersion": "2.0.0",
  "updatedAt": "2018-04-02T11:52:04.342Z"
}